:020000040800F2
:10000000780C00209101000893240008CD18000806
:10001000912400080F060008DF25000800000000FA
:10002000000000000000000000000000972400080D
:1000300047060008000000009524000899240008E5
:10004000AB010008AB010008AB010008AB010008E0
:10005000AB010008AB010008AB010008AB010008D0
:10006000AB010008AB010008AB010008AB010008C0
:10007000AB010008AB010008AB010008AB010008B0
:1000800011060008AB010008AB010008AB01000835
:10009000AB010008AB010008AB010008AB01000890
:1000A000AB010008AB010008AB010008AB01000880
:1000B000AB010008AB010008AB010008D118000833
:1000C000AB010008AB010008AB010008AB01000860
:1000D000AB010008AB010008AB010008AB01000850
:1000E000AB010008AB010008AB01000800F002F80A
:1000F00000F03FF80AA090E8000C82448344AAF183
:100100000107DA4501D100F034F8AFF2090EBAE880
:100110000F0013F0010F18BFFB1A43F0010318473B
:10012000D03C0000F03C0000103A24BF78C878C1F1
:10013000FAD8520724BF30C830C144BF04680C60ED
:10014000704700000023002400250026103A28BF35
:1001500078C1FBD8520728BF30C148BF0B60704739
:10016000752900F04980002070471FB51FBD10B5EC
:1001700010BD00F012FA1146FFF7F7FF02F040FA47
:1001800000F030FA03B4FFF7F2FF03BC00F038FAD6
:100190000948804709480047FEE7FEE7FEE7FEE71B
:1001A000FEE7FEE7FEE7FEE7FEE7FEE70448054957
:1001B000054A064B70470000FB240008ED000008CC
:1001C00078060020780C00207808002078080020AD
:1001D0000FB41CB5074B06AA7B44694600900598EE
:1001E00000F091F90020694600F0A0F91CBC5DF810
:1001F00014FB0000510300002DE9F04106460024E5
:1002000010687529314616A510D0AFF3008000287C
:1002100002DA404213A507E031688A0701D512A52A
:1002200002E0490704D511A5012401E0AFF30080E5
:1002300000210A2206F1240709E0B0FBF2FCB0FB22
:10024000F2F302FB1C00303078541846491C002899
:10025000F3D123462A463046BDE8F04100F0F5B818
:10026000000000002D0000002B0000002000000016
:100270002DE9F0410F460546002028622846E9682E
:10028000884770B3252805D0D5E901219047286A11
:10029000401CF2E7E9682846002688476C28044697
:1002A0000AD0682C08D04C2C35D06A2C31D0742C54
:1002B00031D07A2C2FD016E0E968064628468847C8
:1002C000B042044608D16C2E23D04FF480662846F5
:1002D000E9688847044606E06C2E03D04FF4807628
:1002E00001E01EE04026E4B1A4F14100192802D843
:1002F000203446F400663A46214628462E60FFF731
:100300002FFF60B1012808D0FF1D27F0070708372D
:10031000B4E78026DBE70026D9E73F1DAEE720469D
:10032000B2E7286ABDE8F081032A40F2308010F07D
:10033000030C00F0158011F8013BBCF1020F624480
:1003400098BF11F801CB00F8013B38BF11F8013B11
:10035000A2F1040298BF00F801CB38BF00F8013BBE
:1003600011F0030300F0E780083AC0F0088051F86C
:10037000043B083A51F804CBA0E80810F5E7121D39
:100380005CBF51F8043B40F8043BAFF30080D20758
:1003900024BF11F8013B11F801CB48BF11F8012B24
:1003A00024BF00F8013B00F801CB48BF00F8012B47
:1003B00070474FF000020429C0F0128010F0030CC7
:1003C00000F01B80CCF1040CBCF1020F18BF00F848
:1003D000012BA8BF20F8022BA1EB0C0100F00DB8F7
:1003E0005FEAC17C24BF00F8012B00F8012B48BF55
:1003F00000F8012B70474FF0000200B513469446F9
:100400009646203922BFA0E80C50A0E80C50B1F16C
:100410002001BFF4F7AF090728BFA0E80C5048BF80
:100420000CC05DF804EB890028BF40F8042B08BF1E
:10043000704748BF20F8022B11F0804F18BF00F81A
:10044000012B70477047704770472DE9F0470D4604
:1004500099469246044600F124080168880604D5AE
:10046000E06921F01001216000E00120A84201DDD7
:10047000471B00E00027A1697A1902EB0900081A5E
:10048000A0612078C00602D42046AFF30080002689
:1004900008E0D4E901211AF806009047206A401CC0
:1004A000761C20624E45F4DB2078C0060AD5204633
:1004B000AFF3008006E0D4E9012130209047206AA4
:1004C000401C2062381EA7F10107F4DC07E0D4E9E4
:1004D000012118F805009047206A401C2062281E60
:1004E000A5F10105F3DC2046AFF30080207800067B
:1004F00002D50220BDE8F0870120FBE701694A1C14
:1005000002610878704700B58FB0CDE90131002154
:10051000059105497944CDE9031011466846FFF776
:10052000A7FE0FB000BD0000E5FFFFFF0A6802F85C
:10053000010B0A60704710B5203AC0F00B80B1E89B
:100540001850203AA0E81850B1E81850A0E8185008
:10055000BFF4F5AF5FEA027C24BFB1E81850A0E811
:10056000185044BF18C918C0BDE810405FEA827C2B
:1005700024BF51F8043B40F8043B08BF7047D20742
:1005800028BF31F8023B48BF11F8012B28BF20F8E3
:10059000023B48BF00F8012B7047754600F02CF86D
:1005A000AE4605006946534620F00700854618B060
:1005B00020B5FFF7FBFDBDE820404FF000064FF0EF
:1005C00000074FF000084FF0000B21F00701AC4688
:1005D000ACE8C009ACE8C009ACE8C009ACE8C009A7
:1005E0008D46704710B50446AFF300802046BDE845
:1005F0001040FFF7C7BD00000048704714060020F8
:1006000001491820ABBEFEE7260002007047FEE756
:10061000014800F06BB800000801002030B590F8E8
:1006200040500124AC40C56B6C6004686360436853
:10063000102B036803D099600068C26030BD9A60D7
:100640000068C16030BD704772B6FEE710B590F823
:1006500021100024022903D00421816301243DE0FC
:1006600001680A6822F00E020A6001680A6822F036
:1006700001020A601A4A0168914201D1012121E078
:10068000174A1432914201D110211BE0144A28323A
:10069000914201D1891515E0114A3C32914201D1B4
:1006A00089140FE00E4A5032914202D14FF480314A
:1006B00008E00B4A6432914202D14FF4801101E00C
:1006C0004FF08071064A083A5160012180F82110EC
:1006D000002180F82010416B01B18847204610BDF1
:1006E0000800024090F82100704700002DE9F05FFB
:1006F000C16B0C6801680B68D0F840C0042202FA94
:100700000CF2494DDFF824A1494E4A4FDFF828B1D9
:10071000DFF828E122422CD05A072AD50A6892062F
:1007200003D40A6822F004020A600168A94201D1D8
:10073000042219E0514501D1402215E0B14202D115
:100740004FF4806210E0B94202D14FF480420BE0D6
:10075000594502D14FF4802206E0714502D14FF491
:10076000800201E04FF080622F4908394A60C16A77
:100770003BE04FF0020808FA0CF818EA040F4FF0BB
:1007800000094FF0010235D05FEA837832D50B685B
:100790009B0605D40B6823F00A030B6080F8212028
:1007A0000168A94201D1022219E0514501D120225C
:1007B00015E0B14202D14FF4007210E0B94202D10B
:1007C0004FF400520BE0594502D14FF4003206E0DD
:1007D000714502D14FF4001201E04FF0007212494E
:1007E00008394A6080F82090816A00291AD0BDE853
:1007F000F05F0847082505FA0CF5254212D01B07C3
:1008000010D50B6823F00E030B6090F84010C36BFB
:1008100002FA01F15960826380F8212080F820906B
:10082000016BE2E7BDE8F09F080002401C000240B7
:100830003000024044000240580002406C00024078
:1008400030B528B308C8134914221944B1FBF2F19A
:100850008900C16310498163022141771A6843F618
:10086000F0718A43D0E900142143D0E902452C43BA
:10087000214304692143446921438469214311438D
:10088000196000214163012242770177084630BD9B
:10089000012030BDF8FFFDBF0000024070B50446E6
:1008A00090F82000002501280CD0012084F82000B9
:1008B00094F821600020012E06D084F82000022543
:1008C000284670BD022070BD022684F82160A06316
:1008D0002068066826F0010606602046FFF79EFEA7
:1008E000E06A00282068016802D041F00E0106E0AD
:1008F00021F0040101602068016841F00A010160F3
:100900002068016841F001010160D9E770B5044633
:1009100000F0FEF80546601C02D00448007804444C
:1009200000F0F6F8401BA042FAD370BD0000002092
:100930002DE9F84FDFF8B8910024A9F1040B234604
:100940000F2709F1040AABF1040EC9E00125A54007
:100950002A40AA427DD1674ED1F804C0ACEB06080C
:10096000B44532D014DCBCF1030F3AD009DCBCF141
:10097000000F2AD0BCF1010F1CD0BCF1020F31D105
:100980001DE0BCF1110F17D0BCF1120F2AD119E0F4
:10099000B8F5881F19D006DCB8F5803F15D0B8F53A
:1009A000801F1FD111E0B8F5001F0ED0B8F5041F4D
:1009B00018D10AE0CB6815E0CB681B1D12E0CB68AC
:1009C00008330FE0CB680C330CE08B682BB1012BA4
:1009D0004FF0080303D0456104E0042302E0056101
:1009E00000E00023FF2A01D8064601E000F10406DA
:1009F0004FEA840501D9A5F12005D6F8008007FA51
:100A000005FC28EA0C0803FA05F548EA0508C6F8CB
:100A100000804D68ED0062D5374DAE6946F00106A5
:100A2000AE61AD6924F0030605F001050095334D74
:100A300006EB050CDCF80850A607360F07FA06F897
:100A400025EA0805DFF8B880404503D14FF00008DB
:100A500017E044E0DFF8AC80404502D14FF00108D8
:100A60000FE0DFF8A480404502D14FF0020808E013
:100A7000DFF89880404502D14FF0030801E04FF0C5
:100A8000040808FA06F848EA0508CCF808804D681A
:100A9000D9F80060ED024D4601D5164300E09643BB
:100AA0002E604D68DAF80060AD02554601D5164358
:100AB00000E096432E604D68DBF80060AD035D46B4
:100AC00001D5164300E096432E604D68DEF80060C5
:100AD000ED03754601D5164300E096432E60641C75
:100AE0000D682A46E5407FF431AFBDE8F88F00007D
:100AF00008040140000011100010024000000140F5
:100B000000080140000C01400010014000140140A9
:100B1000014880687047000000000020704770475F
:100B20002DE9F047026800215368C66A90F83E40FC
:100B300090F83D50102C12D0402C10D0046C002C9A
:100B40007DD05469E443A6077AD4DE43B60577D452
:100B5000036C03B19169BDE8F04701F041BB9769AF
:100B600051694FF42A0CC9435FEAC1784FF02A4912
:100B700004D066452AD04E4528D010E0DE43B605A5
:100B80000DD4C16A614501D1012103E0C16A494523
:100B900001D10821C162BDE8F04701F087BA0E0714
:100BA00016D4DE43B60513D4416CC9B21161416B52
:100BB00009B1896A29B9816B002907D0896A00299E
:100BC00004D00068416841F400614160BDE8F087ED
:100BD0008E0706D4DE43B60503D4BDE8F04701F026
:100BE000B9B9FE43526876074FEA02521DD4002A73
:100BF000ECDB0A0608D4DA43520505D4490705D5CB
:100C0000BDE8F04701F04AB94907DFD4D943890567
:100C1000DCD4212D05D0402CD8D1BDE8F04701F01F
:100C20008BBABDE8F04701F0F7B8002ACEDB4A06E0
:100C30000BD4DA43520508D4490708D501E00DE08A
:100C40000EE0BDE8F04701F06DB84907BED4D943C6
:100C50008905BBD4BDE8F04700F0F6BF916970E7A5
:100C6000E10606D4D943890503D4BDE8F04701F075
:100C7000DBBA2821212D27D0292D25D0650655D472
:100C8000DD436D0552D4640752D590F83D30448D54
:100C9000002C9BD01269446A2270426A521C426244
:100CA000428D521E4285428D002A8FD12A2B8DD132
:100CB0000268536823F4806353602222026380F841
:100CC0003D1000F017FA81E7250623D4DD436D05BA
:100CD00020D4640720D590F83D30448D002CF2D00C
:100CE000446A24781461426A521C4262428D521E48
:100CF0004285428D002AE6D1292BE4D1026853684F
:100D000023F4806353602122026380F83D1000F0D9
:100D1000F2F95BE76107D6D4D9438905D3D4418D75
:100D20000029D0D0416A097811610AE06107CAD46C
:100D3000D9438905C7D4418D0029C4D01169426ABD
:100D40001170416A491C4162418D491E41853DE750
:100D5000704790F83D00704770B5040025D094F8B6
:100D60003D00002520B984F83C50204600F068F989
:100D7000242084F83D002068016821F00101016011
:100D80002068016841F4004101602068016821F495
:100D90000041016000F0DEFA4D4A6168914201D8DD
:100DA0004C4900E04C49884201D2012070BD4B49BA
:100DB0002368B0FBF1F15E6826F03F060E435E60EB
:100DC0006368934206D94FF4967359434FF47A738C
:100DD000B1FBF3F12368491C1E6A26F03F0631433C
:100DE00019626168914210D84900401EB0FBF1F2CF
:100DF000521CC2F30B02042A01D2042022E0B0FBF1
:100E0000F1F0401CC0F30B001CE0A268F2B301EB50
:100E1000C10303EB0116431EB3FBF6F35B1C43F463
:100E200080431B0549D092B301EBC10202EB0111D3
:100E3000401EB0FBF1F0401CC0F30B0040F48040BA
:100E400040F400402168CA694CF6FF739A4310438E
:100E5000C861D4E9071001432068026822F0C0028B
:100E600011430160D4E9030101432068826848F21C
:100E7000FF339A4311438160D4E905010843216897
:100E8000CA6822F0FF021043C86001E00EE016E0DD
:100E90002068016841F0010101602564202084F888
:100EA0003D00256384F83E50002070BD01EB4106F3
:100EB000431EB3FBF6F35B1CB3E70120C2E701EB73
:100EC0004101401EB0FBF1F0401CC0F30B00B7E73E
:100ED000A086010080841E0000093D0040420F00F2
:100EE0007047704770470000F8B50025044600952C
:100EF00090F83D00202828D14C4846F2A8160068FA
:100F0000B0FBF6F000EBC00606EB001020260090C8
:100F10000098401E009010D020688069C043800770
:100F2000F6D594F83C0001280FD0012084F83C004D
:100F300020680768FF070AD00DE044F8305F667349
:100F4000A573206940F0200020610220F8BD0768E9
:100F500047F0010707602068076827F4006707600B
:100F6000212084F83D00102084F83E002564626250
:100F70006385608D20852E48E0626164208DE8B332
:100F8000606BF0B12B498162616B2B480863606B29
:100F9000C562606B45632268238D1032616A606BA5
:100FA000FFF77CFCB0B184F83D6084F83E5054F803
:100FB000400F40F0100000BF44F8040901202570E4
:100FC000F8BD84F83D6084F83E5054F8400F40F07E
:100FD0008000F1E784F83C502068416841F440719A
:100FE00041602068416841F4006141602068016807
:100FF00041F4806101602068016800E003E041F491
:101000008071016010E02068016841F48061016036
:101010002068016841F48071016084F83C502068C8
:10102000416841F4E06141600020F8BD0C000020FF
:101030000000FFFFCF19000899190008704770479A
:1010400070B586B00025064600950195029503957A
:101050000068224988423FD1214CA06940F0080035
:10106000A061A069694600F0080004904FF4407048
:10107000009012200190032003901A48FFF758FCBB
:101080001948416841F0E06141F002014160E069C6
:1010900040F40010E061E069154C00F40010049089
:1010A000124820601020C4E901058020C4E903052E
:1010B00040016561C4E906502046FFF7C1FB08B155
:1010C000FFF7C2FA7463002211461F20666200F027
:1010D00079F81F2000F068F806B070BD0054004099
:1010E00000100240000C0140000001406C00024072
:1010F0000801002070477047024881680278114457
:101100008160704700000020074810B5016841F079
:1011100010010160032000F075F80F2000F006F8C0
:1011200000F024F8002010BD0020024070B50D4DE5
:1011300004464FF47A712878B1FBF0F00A49096847
:10114000B1FBF0F000F0CCFA48B9102C07D2002225
:101150002146501E00F036F800206C6070BD012062
:1011600070BD0000000000200C0000200C4808B5F5
:10117000816941F001018161816901F00101009102
:10118000C16941F08051C161C06900F08050009098
:101190000448416821F0E06141F00071416008BD00
:1011A0000010024000000140002809DB00F01F028F
:1011B000012191404009800000F1E020C0F80011B9
:1011C00070470000F0B40E4B1B680C46C3F30223BB
:1011D000C3F10705042D00D90425191D072901D2E3
:1011E000002300E0DB1E012606FA05F1491E21401E
:1011F00099409E40761E16403143F0BC01F0F0B994
:101200000CED00E0064900F0070208684FF6FF0306
:10121000184040EA0220034A10430860704700006B
:101220000CED00E00000FA052DE9F0470F4605003F
:1012300061D0434E306800F00700B84209D23068F0
:1012400020F0070038433060306800F00700B842F3
:1012500051D128683B4C810712D5400703D56068FF
:1012600040F4E06060602878000703D5606840F4CF
:10127000605060606068A96820F0F000084360601A
:101280002878C00728D06868012810D02168022873
:1012900010D0890700292EDA616821F0030101438B
:1012A0006160FFF735FC804641F288390DE0216826
:1012B0008903EFE78901EDE7FFF72AFCA0EB0801BE
:1012C000494502D90320BDE8F0876068696800F0ED
:1012D0000C00B0EB810FEFD1306800F00700B8428E
:1012E0000BD9306820F0070038433060306800F0D8
:1012F0000700B84201D00120E5E72878400705D56E
:101300006068E96820F4E0600843606028780007BE
:1013100006D56068296920F4605040EAC100606029
:1013200000F028F86168084AC1F30311515CC84015
:101330000649086006480068FFF7F8FE0020C2E78B
:101340000020024000100240A23400080C000020DF
:10135000040000200448054900684968044AC1F3B4
:101360000221515CC84070470C0000200010024070
:10137000B23400080E4A51680E4801F00C03042BE9
:1013800011D0082B0FD10C48C1F38343C903C05CB3
:101390000AD55168084AC1F34041921E515C054A82
:1013A0005043B0FBF1F070470449484370470000D8
:1013B0000010024000127A009234000800093D003B
:1013C0002DE9F84F040070D02078C04DC00749D0F7
:1013D0006868C0F38100012807D06868C0F3810005
:1013E000022809D16868C00306D52868800339D56A
:1013F00060680028E7D035E06068B0F5803F0BD02A
:1014000010B1B0F5A02F11D0286820F480302860EA
:10141000286820F4802002E0286840F480302860AA
:10142000606890B1FFF774FB06460AE0286840F454
:1014300080202860F0E700BFFFF76AFB801B64286C
:1014400073D828688003F7D50CE0FFF761FB0646E8
:1014500005E000BFFFF75CFB801B6428F0D828681C
:101460008003F7D420789A4E80074FF001094FF09F
:10147000000839D5686810F00C0F07D06868C0F311
:101480008100022809D16868C00306D42868800753
:1014900014D52069012808D110E02069B0B1C6F840
:1014A0000090FFF735FB074605E00AE1FFF730FB48
:1014B000C01B0228C4D828688007F7D5286861694E
:1014C00020F0F80040EAC10028600DE0C6F8008076
:1014D000FFF71EFB074604E0FFF71AFBC01B0228BC
:1014E00023D828688007F7D4207800072CD57948BE
:1014F000A169D9B1C0F80090FFF70AFB074604E0E4
:10150000FFF706FBC01B02280FD8686A8007F7D5D3
:1015100071484FF4FA510068B0FBF1F0009000BF41
:101520000098411E0091FAD20EE080E0C0F80080E1
:10153000FFF7EEFA074604E0FFF7EAFAC01B0228BD
:1015400075D8686A8007F7D42078400760D5E869C5
:101550000027C00008D4E86940F08050E861E869DD
:10156000012700F0805000905C480168C90513D441
:101570000168834641F480710160FFF7C9FA824631
:1015800006E000BFFFF7C4FAA0EB0A0064284ED8BB
:10159000DBF80000C005F5D5E06801280AD008B1E5
:1015A000052813D0286A20F001002862286A20F05C
:1015B000040002E0286A40F001002862E06841F27D
:1015C000883B98B1FFF7A4FA82460BE0286A40F006
:1015D00004002862EEE700BFFFF79AFAA0EB0A01C9
:1015E00059455AD8286A8007F6D50CE0FFF790FADB
:1015F000824605E0FFF78CFAA0EB0A0159454CD86A
:10160000286A8007F6D41FB1E86920F08050E861AD
:10161000E06988B36968C1F38101022944D00228D6
:10162000C6F8608004D0FFF773FA044638E034E06F
:10163000FFF76EFA074604E0FFF76AFAC01B0228BC
:101640002BD828688001F7D4206AB0F5803F05D1F7
:101650006868A16820F4003008436860D4E9080194
:101660000843696821F4741108436860C6F8609003
:10167000FFF74EFA044606E025E000BFFFF748FA00
:10168000001B022809D828688001F7D51BE000BF9D
:10169000FFF73EFA001B022802D90320BDE8F88FAD
:1016A00028688001F4D40EE00128F7D06868226A27
:1016B00000F48031914204D1616A00F470108842D4
:1016C00001D00120EAE70020E8E700000010024016
:1016D00000004242800442420C00002000700040A2
:1016E00010B5401EB0F1807F01D3012010BD4FF036
:1016F000E02460610F21601700F072FF0020A061FC
:1017000007202061002010BD70B590F83C20012A10
:1017100026D0012480F83C40022280F83D20036856
:101720005A689D6822F070060A6832435A600D4B71
:1017300002689A4208D0B2F1804F05D00A4B9A4213
:1017400002D00A4B9A4204D1496825F0800319431C
:10175000916080F83D40002180F83C10084670BD43
:10176000022070BD002C0140000400400008004031
:1017700010B5040003D094F83D0010B107E001203B
:1017800010BD002084F83C00204600F01FF8022025
:1017900084F83D00211D206800F0B0FE012084F88F
:1017A000460084F83E0084F83F0084F8400084F846
:1017B000410084F8420084F8430084F8440084F82F
:1017C000450084F83D00002010BD000008B5006809
:1017D000B0F1804F08D10548C16941F00101C161F4
:1017E000C06900F00100009008BD00000010024038
:1017F00070B5044690F83C000025012817D001265A
:1018000084F83C60022084F83D002068826822F061
:10181000770222F47F4282600868502838D00DDCBD
:1018200020284FD005DC90B3102811D14AE00220C7
:1018300070BD302846D040280AD13BE060282FD028
:1018400070280DD0B0F5805F03D0B0F5005F12D0E6
:10185000012584F83D60002084F83C00284670BDD6
:10186000CB68D1E90121206800F084FE20688168FE
:1018700041F0770109E0CB68D1E90121206800F04F
:1018800079FE2068816841F480418160E1E719E0D8
:10189000CA684968206800F07FFE5021206806E091
:1018A000CA684968206800F088FE6021206800F05E
:1018B0006BFECEE7CA684968206800F06DFE4021E3
:1018C0002068F4E7226801461046F0E7FEE70000D2
:1018D0000148FFF725B90000B400002038B5406A80
:1018E000002190F83D202B4B46F2A8141B68B3FB57
:1018F000F4F3C3EBC30303EB830300933BB15B1E21
:10190000009303681B689B0505D5009BF6E7036CF5
:1019100043F020030364436B03B19962836B03B10B
:10192000996203681C6824F480641C604185436BE1
:1019300003B15963836B03B1596303681C6824F0D6
:1019400001041C6090F83D402023602C0BD028241B
:1019500034EA02020FD080F83D3080F83E1000BF1C
:10196000FFF7F6F938BD80F83D3080F83E1001648D
:10197000FFF7D4F838BD0268136843F00103136021
:101980000268136843F480631360016380F83D408C
:10199000E6E700000C00002010B5406A0021426B11
:1019A00002B19162826B02B191620268136823F402
:1019B000806313604185202280F83D2080F83E102E
:1019C000016C41F010010164FFF7C2F910BD2DE96F
:1019D000F041446A94F83D2094F83E50E16A206852
:1019E000436823F440734360636B002003B1986243
:1019F000A36B03B19862212333EA02074FF022065A
:101A00000CD036EA020701D1202D07D094F83E20F1
:101A1000002A21D0628D012A20D024E021684D685F
:101A200025F400654D6060852820292A02D02A2AE5
:101A300007D00CE0236384F83D002046FFF75BFBF2
:101A400005E0266384F83D002046FFF753FB20683D
:101A5000416841F440714160BDE8F081226813683B
:101A600023F4806313602268536823F44073536047
:101A700011F5803F06D0082904D0B1F12A4F01D0DA
:101A8000202904D12268136843F40073136022688C
:101A9000536823F4805353602268536823F400632F
:101AA00053606085226C1AB12046FFF751F9D3E7E5
:101AB000202284F83D2094F83E2084F83E00402AFD
:101AC00009D0082902D0202900D012202063204606
:101AD000FFF707FAC0E720632046FFF7AFFABBE73E
:101AE00000684169C943090601D4002101617047BA
:101AF00070B5044690F83D0094F83E10102901D0CE
:101B0000402906D1222804D121680A6822F4006203
:101B10000A60282131EA00024FF000054FF020064C
:101B200026D021684968090505D4602803D084F8C7
:101B30003D6084F83E50256320684168090537D52B
:101B4000416821F400614160606B90F821203C49BC
:101B5000012A11D04163606BFEF778FD38B320682D
:101B6000016821F00101016084F83D60606B1CE0B8
:101B7000256384F83D10DFE7A06B4163A06BFEF79F
:101B800065FDA0B120684169C943490605D40069D3
:101B9000616A0870606A401C60622068016821F018
:101BA0000101016084F83D60A06B416B884710E043
:101BB00094F83D10602910D04169C943490605D405
:101BC0000069616A0870606A401C60622046FFF725
:101BD000BFF8206CC1071CD115E084F83D60256476
:101BE0004169C943490605D40069616A0870606AA1
:101BF000401C60622068016821F0010101602046FC
:101C0000FEF78CFFE5E7810703D4410701D4000705
:101C100004D52068416821F4E061416094F83D00FA
:101C2000216C49070BD5282809D10648E0622563B5
:101C300084F83D6084F83E502046FFF751F970BDAE
:101C4000DD1800080000FFFF10B5C26A438D01686F
:101C5000042B06D0438D032B08D0438D022B1DD0BF
:101C600012E04A6822F480624A600CE04B6823F478
:101C700080634B60042A06D0022A04D001680A68F7
:101C800022F480620A6001680969426A1170416A3F
:101C9000491C4162418D491E418510BD012A34D045
:101CA000102A32D0042A34D0022A32D00B6843F4EE
:101CB00000730B6001680969436A1970416A491C25
:101CC0004162438D5B1E438503681B690B70416A4B
:101CD000491C4162418D491E418501684B6823F4CE
:101CE00040734B60202180F83D1090F83E30002179
:101CF000402B80F83E1010D0082A02D0202A00D0B5
:101D000012210163FFF7EDF810BD0B6823F4806327
:101D1000CFE70B6843F48063CBE70163FFF78EF9ED
:101D200010BD000038B590F83D10222910D1C36ACB
:101D3000418D03290DD901680969426A1170416A10
:101D4000491C4162418D491E4185418D032906D0C0
:101D500038BDC26A022A02D0012906D029B1006822
:101D6000416821F48061416038BD2A4A46F2A814D6
:101D700000211268B2FBF4F202EB820200920268C8
:101D80002024009D6D1E009526D01568AD05F8D461
:101D9000156825F4806515600268556825F4E065CE
:101DA000556002681269456A2A70426A521C426292
:101DB000428D521E428580F83D4090F83E2080F8CA
:101DC0003E10402A21D0082B02D0202B00D0122117
:101DD0000163FFF786F838BD036C43F0200303640A
:101DE000536823F4E063536002681269436A1A700F
:101DF000426A521C4262428D521E428580F83D402A
:101E000080F83E10FEF7A4FF38BD0163FFF716F916
:101E100038BD00000C00002010B5C26A90F83D10DB
:101E200021290BD1418D51B1416A026809781161B4
:101E3000416A491C4162418D491E418510BD2023E4
:101E40000021082A13D0202A11D012F5803F0ED08D
:101E50000268546824F4E06454601122026380F83C
:101E60003E1080F83D3000BFFFF73CF810BD02681F
:101E7000546824F4E06454600268146844F4007404
:101E80001460016380F83D3090F83E2080F83E10E9
:101E9000402AE9D1FFF7D3F810BD000010B590F843
:101EA0003D1090F83E30C26A048DB4B1212903D0B0
:101EB000402B11D122290FD1418DE1B390F83E1072
:101EC000402942D0416A026809781161416A491C7F
:101ED0004162418D491E418510BD2129E8D1202351
:101EE0000021082A13D0202A11D012F5803F0ED0ED
:101EF0000268546824F4E06454601122026380F89C
:101F00003E1080F83D3000BFFEF7ECFF10BD0268C8
:101F1000546824F4E06454600268146844F4007463
:101F20001460016380F83D3090F83E2080F83E1048
:101F3000402AE9D100E002E0FFF781F810BD006817
:101F4000416821F48061416010BDBDE8104000F09F
:101F5000F3B8000078B590F83E50C26A046B90F870
:101F60003D6000230168222E73D1066D0EB9402D0D
:101F70006FD0056D1DB90569B5F5404F1BD0458D76
:101F800095B3468D484D012E20D0448D022C4DD066
:101F90000C6844F480640C6001684C68240579D5B1
:101FA000AA4273D0012A71D0082A6FD0102A6DD0AE
:101FB000202A6BD06EE04A698A6900920A6842F46E
:101FC00080720A60016D491C016578BDAA4214D176
:101FD0000A6822F480620A6001684A68120504D522
:101FE0000A6822F4806217E0FFE74A698A69009272
:101FF0000A6842F400720A6050E0082A10D0202AD1
:102000000ED0122C0AD0042A03D0022A01D0102AA2
:10201000E6D10A6842F480620A603BE0012ADFD020
:102020000A6822F480620A600168DEE7042A11D09F
:10203000022A0FD0102A0DD00C6844F400640C6002
:1020400001684C698C6900940C6824F480640C600D
:1020500008E025E00C6844F480640C6001684C6979
:102060008969009101684C68240517D5AA4207D0F8
:10207000012A05D0082A03D0102A01D0202A0DD128
:102080004A6842F480524A6008E0FFE74A6842F436
:1020900080524A6001684A6989690091036578BD88
:1020A00048698869009078BD0000FFFF90F83E10F5
:1020B000402910D00169B1F5804F19D0016DA9B345
:1020C000016D012910D1416C5FF0F10201F4407102
:1020D00042EAD11106E0016D0029416C05D0C9B278
:1020E00041F0010100680161704701F0FE01F9E76C
:1020F00090F83D102129416C09D0C9B241F001018D
:1021000002681161416B29B1896A49B902E001F0A5
:10211000FE01F5E7816B0029E6D0896A0029E3D04A
:102120000068416841F4006141607047FFE7416C1D
:10213000F02201F44071CBE710B590F83D10026D2C
:102140004AB1026D012A14D0026D022A16D0BDE8F0
:102150001040FFF7C5BCC16C0129816C02D0C1F3EE
:10216000072108E00268C9B21161016D891C01658F
:1021700010BD816CC9B20268116123E022291CD014
:10218000428D0AB1212920D0428D002AF0D1212987
:10219000EED101684A6822F4E0624A6001680A6888
:1021A00042F400720A6000210163202280F83D2081
:1021B00080F83E10FEF743FF10BD01680A6842F444
:1021C00080720A60016D491CD1E7416A0268097892
:1021D0001161416A491C4162418D491E418510BD12
:1021E00038B50C4690F83D2000212825954302681B
:1021F0000B4605D051699169009180F83C3038BD9B
:10220000556825F480655560E243540700D50121E7
:10221000120601D5828900E0028B80F83C3092B230
:10222000FEF77DFC38BD0000F8B590F83D6004462F
:102230000068416821F4E06141602068002541693F
:102240000091016841F0010101602068016821F4FA
:102250008061016020684168090520D5474F222E22
:1022600048D02A2E46D0616B096849686185618D26
:1022700019B1216C41F004012164416821F400612D
:102280004160606BFEF72EFA012808D0606B47634F
:10229000606BFEF7DBF910B1606B416B8847608DB6
:1022A00008B320684169C943490708D40069616AD5
:1022B0000870606A401C6062608D401E6085206806
:1022C0004169C943490608D40069616A0870606AB7
:1022D000401C6062608D401E6085608D18B1206C6E
:1022E00040F004002064206C00B32046BDE8F840B4
:1022F000FFF7FEBBA16B096849686185618D19B163
:10230000216C41F004012164416821F400614160C5
:10231000A06BFEF7E7F90128C1D0A06B4763A06B63
:10232000FEF794F90028BAD0A06BB6E72A2E06D1A2
:102330002563282084F83D002046FEF7DBFE94F854
:102340003D10202028290DD0216B222901D0222EDA
:1023500007D1256384F83D0084F83E502046FEF7FF
:10236000C9FEF8BD0649E162256384F83D0084F8A2
:102370003E502046FEF7B4FDF8BD0000DD18000811
:102380000000FFFF094808B5416941F001014161C2
:102390004069002200F00100009011461020FEF775
:1023A00011FFBDE808401020FEF7FEBE00100240FD
:1023B0000D4808B5816941F020018161816901F012
:1023C00020010091816941F004018161816901F07E
:1023D00004010091816941F008018161806900F088
:1023E0000800009008BD0000001002400D4810B524
:1023F0000B4901600C49416000214FF4804281602B
:10240000C0E9031241618161C1610162FEF7A4FC70
:10241000002803D0BDE81040FEF716B910BD00003B
:1024200000540040B4000020801A060010B586B0A9
:1024300000241648009401940294039404944FF0ED
:1024400080410594C0E900144FF6FF71C0E90241D4
:1024500004618461FFF78CF908B1FEF7F5F84FF4D9
:102460008050009069460948FFF7C2F908B1FEF7AD
:10247000EBF8049404A905480594FFF745F90028F2
:1024800001D0FEF7E1F806B010BD00004C010020BD
:10249000FEE7FEE770477047FEF72EBE30B58FB0FF
:1024A00028216846FDF7A7FF14210AA8FDF7A3FF1E
:1024B00001210804CDE900100024029402250491B2
:1024C000CDE907504FF4E01009906846FEF778FF19
:1024D00008B172B6FEE70F20CDE90A054FF480601F
:1024E000CDE90C4002210AA80E94FEF79DFE0028BB
:1024F00001D072B6FEE70FB030BD7047F0B502688C
:10250000194B1A4C1A4D4FF08047984205D0B842EB
:1025100003D0A04201D0A84203D122F070064A683D
:102520003243984205D0B84203D0A04201D0A8421D
:1025300003D122F44074CA6822434C6922F080021D
:10254000224302608A68C2620A688262984201D1AC
:1025500009690163012141610169C90703D001696A
:1025600021F001010161F0BD002C01400004004098
:102570000008004010B5846842EA032224F47F4436
:102580000A432243826010BD826822F070020A432F
:1025900042F007018160704710B5036A046A24F0B5
:1025A00001040462846924F0F00444EA021423F074
:1025B0000A020A438461026210BD10B5036A046A0C
:1025C00024F010040462846923F0A00324F470440E
:1025D00044EA023243EA01118261016210BDFEE762
:1025E0000907090E002804DB00F1E02080F8001440
:1025F000704700F00F0000F1E02080F8141D7047D4
:102600001FB5FEF781FDFFF749FFFFF7D1FEFFF78A
:10261000B9FEFFF7EBFEFFF709FF00F047F80025D2
:102620004FF014080A244FF001092F46FEF770FA04
:1026300006464FF47A7A00BFFEF76AFA811B5145CD
:102640000AD34FF47A725743B7FBF1F206460027DC
:1026500011A101A8FDF7BCFD05EB090005B2802D15
:1026600000DD65420F4800F071F80F490D4800F099
:1026700050F901AB0A2200210A4800F021F9424634
:10268000A9B223460748009400F069F8054800F015
:1026900037F97F1CD0E700004650533A20256C756F
:1026A0000000000020000020BA34000810B5074BDD
:1026B000074A0849084800F075F9074800F0C1FCCE
:1026C000BDE810400021044800F0CBBCDD26000826
:1026D000053100088C3C00082000002010B54D2971
:1026E00019D00CDC2B2918D004DC292920D02A2968
:1026F0000ED114E02D291FD04C2909D10BE0002266
:10270000502920D051291ED052291CD053291AD02B
:10271000012180F82710012010BD00BFFBE7002039
:102720004FF4A07100BF401C80B28842FAD3F2E798
:102730001046FEF7EBF8EEE7002000BF401C80B229
:10274000A028FAD3E7E780F82720E4E701680A7CAD
:1027500090F83810406B5143C900FDF72ABE2DE9AF
:10276000F8438146089C1E46101980B200908819D3
:1027700083B215468846484600F0AAF800280ED0D5
:102780000027002C0BD033462A4641464846009786
:1027900000F040F86D1C641EADB2A4B2F1E7BDE8D4
:1027A000F8832DE9F041044690F870001F46154665
:1027B0000E4630B1012809D002280CD0032815D1CB
:1027C0000FE0E16D20468847284408E0E16D20468F
:1027D0008847301A09E0E16D20468847281A85B2FB
:1027E00004E0E16D20468847304486B22846A4F8CC
:1027F0006460A4F8660039460025204600F0C8FA57
:10280000010003D0204600F0F3F985B22846BDE868
:10281000F08100003FB581B0044690F88C00089923
:1028200000283AD0BDF81000002836D0012811D970
:10283000022902D0032907D00CE0BDF80820101AA5
:10284000401CADF8080005E0BDF80C20101A401C33
:10285000ADF80C0011F0010521D0B4F84810BDF816
:102860000800814219D8B4F84A10814215D9B4F849
:102870004E30B4F84C2004A90DF10C0000F02AF9F8
:1028800000280AD00095206BBDF81030BDF80C2050
:102890008568BDF808102046A84705B030BDB4F8DB
:1028A0004C10BDF80C008142F7D8B4F84E108142AC
:1028B000F3D9B4F84A30B4F8482004A902A8DDE7F7
:1028C00030B4024C446030BC00F031B9C93000086B
:1028D00070B50D461E460446B0F84E10B0F84C00D8
:1028E000049B00F0B2FA002809D0B4F84A10B4F8FA
:1028F000480033462A46BDE8704000F0A6BA70BDD5
:1029000010B5044600F031FB2046BDE8104000F051
:10291000A0BB10B50446806D884209D004F1740054
:10292000A16500F0EDFA2046BDE8104000F056B871
:1029300010BD00000149C16570470000A52B0008CB
:102940000021A0F85010A0F854104FF6FF71A0F825
:102950005210A0F85610016B4968084770B504463C
:1029600000250498A565E362616384F8382084F843
:10297000395084F86D5084F8915084F88D500121BD
:1029800084F8921084F893102063016820468847E9
:102990002046FFF7D5FF2046FFF7CCFF84F87050A4
:1029A00070BD00007CB50C46009313460546084AEE
:1029B000084900F05EFB01A800F09CFA0146064BB6
:1029C00000949DF804202846FFF7C8FF7CBD000056
:1029D0002132000849330008652E000810B5816DCA
:1029E00000291AD090F9813080F88E3090F9822039
:1029F00080F88F2090F88D1000290ED001290DD07D
:102A000090F97E4090F980100C449C4201DD80F8E2
:102A10008E408A4201DD80F88F1010BD90F983103E
:102A20008B4201DA80F88E1090F98410F1E72BB117
:102A3000012B05D0022B06D0104402E0084400E030
:102A4000801A80B27047401AFBE72BB1012B05D0EA
:102A5000022B06D0401A02E0104400E0084480B285
:102A60007047801AFBE738B50446B0F8560000906E
:102A7000B4F85230B4F85420B4F850102046FFF7A0
:102A800027FF18B3012084F88C00B4F84810B4F87C
:102A90005000814201D2A4F84800B4F84A10B4F8BA
:102AA0005200814201D9A4F84A00B4F84C10B4F89D
:102AB0005400814201D2A4F84C00B4F84E10B4F88E
:102AC0005600814201D9A4F84E0038BD002084F898
:102AD0008C0038BD30B504880D882544ADB2AC42B9
:102AE00005D99C4202D25D1EADB200E014469C4264
:102AF00001D2954201D8002030BD944200D2144644
:102B00009D4200D91D460480281B0880012030BD4D
:102B100038B5C58F049C0094521BC46A92B2A0477A
:102B200038BD38B5049C0094FFF7F2FF38BD2DE99D
:102B3000F0471C4691468846064600F0A5FC002555
:102B40004FF6FF7772682178304690470346B842C7
:102B500025D0641CA3F57F40FE38F3D04A46414699
:102B60003046FFF71EFE96F8701031B1012907D0EC
:102B7000022908D003290FD10AE008EB000104E084
:102B800009EB000106E0A8EB00011FFA81F803E061
:102B9000A9EB00011FFA81F9284485B2D2E7284643
:102BA000BDE8F0870020704710B50C4600F006F82D
:102BB0000122641EA240801A40B210BD30B50568E3
:102BC000047B2A78E2406318DBB2082B09D36D1C22
:102BD00005602D78C4F10804A5401543083BEAB20E
:102BE000DBB201248C40641E14400373204630BDC8
:102BF0002DE9F843054600F1600400F00CF915F9E1
:102C00006B6F2046E97BFFF7CFFF8146297C20468A
:102C1000FFF7CAFF0746697C20466B3DFFF7C4FFFC
:102C2000804694F90A00002857DDF019404247B267
:102C3000237CA0883A464946FFF7F9FEA080237C12
:102C40003A46E0884946FFF700FFE080A188277CEC
:102C500002460B4637B1012F0AD0022F40D0032F76
:102C60000FD146E094F90A7030443B449BB207E030
:102C7000891B491C94F90A705B1C89B29BB23844C9
:102C800080B200902846FFF723FE30B30020207268
:102C900084F8090095F876102046FFF78FFF8146EB
:102CA00095F877102046FFF789FF0746002249462E
:102CB000284600F027F801223946284600F022F87D
:102CC00001212046FFF77AFF0028EFD194F909008F
:102CD000B042DFDBA07B85F892004046BDE8F88378
:102CE00094F90A705B1CC91B491C89B29BB2921BE8
:102CF00004E094F90A7033449BB2D21B521C92B286
:102D0000401CBDE72DE9F74F84B00D46049C94F8B4
:102D1000687094F869806034A07AC01BC6B20196CE
:102D2000B54200D201954FFA88F279B2A088B4F882
:102D300006B0237C92468946FFF779FE0290237CF9
:102D4000524649465846FFF780FE0246069808B1AB
:102D5000A17B02E0607B50B9E17B049880F892107F
:102D6000207C0090DDE901310498FFF753FDB54266
:102D700007D3A81BC5B208F10100002700F0FF0827
:102D8000CAE77819207284F8098007B0BDE8F08F8F
:102D900070B50D460146806D1730FF2D10D8612D9E
:102DA00002D3B1F8881003E0412D02D3B1F88610A8
:102DB0000844417819B30278AA42F9D1801C70BD49
:102DC000B1F88A100C1826460021304600F019F898
:102DD00004440221304600F014F8361DA842F3D313
:102DE0004FF6FF72207802EA00216078084306D08F
:102DF000A84201D1E01C70BDA0780444F2E7002095
:102E000070BD08444FF6FF720178407802EA012154
:102E1000084480B2704730B5054600F16004016691
:102E20000020207315F8781F2046FFF7C7FEA07218
:102E300069782046FFF7C2FEE072A87EA07310B149
:102E40000020E07330BD0120FBE78A4205D28342B7
:102E500001D89A4203D9012070478342F9D8002053
:102E600070470000F0B502F007060124B4400025C9
:102E700090F892E0E7B2DDF814C02C46BEF1010FE5
:102E800001D83D4600D03C46076822F00702BCF15D
:102E9000000F3F7C07FB02F7BAB2476B3A4411447C
:102EA00009D108785B1E284360401B0401F8010B20
:102EB0001B0CF6D1F0BD0A78761C2A436240A3F1C0
:102EC00001030A7016F007069BB206D06A06150EBB
:102ED0006206140E002BEED1F0BD428F114490F823
:102EE0009220012A03D800BF4FF00105F2D04FF025
:102EF0000104EFE7082101700048704794010020A9
:102F000070B5054608782870487868708878A87089
:102F1000C878E870087928714879687188790C4612
:102F2000A871E079E871207A2872607A6872A07AD4
:102F3000A872E07AE872207B2873607B6873A07BBC
:102F4000A873E07BE873207C287411212046FFF7EA
:102F500058FF688213212046FFF753FFA8821521EE
:102F60002046FFF74EFFE88270BD2DE9F843064684
:102F700090F8387090F83950006800244FF6FF78C8
:102F800090F81190316830462A460B7C716B04FB37
:102F900003FC1FFA8CFC08EACC0C61440091002170
:102FA00000F040F8641C6D1CE4B2EDB2BC4201D2EA
:102FB0004D45E7D3BDE8F883F0B590F838204FF6DB
:102FC000FF75036805EAC2018187197C05EAC10122
:102FD000418790F8394005EAC401C1875E7CA71893
:102FE000B74201D9321B92B205EAC20220F8401F53
:102FF00011444180998A8180D98AC180F0BDFFF750
:10300000DBBF0021A0F84810B0F84410A0F84A1027
:10301000B0F84010A0F84C10B0F84210A0F84E10D4
:10302000FFF721BD1CB58DF805108DF80620049C16
:103030008DF804300094012284686B460F21A0476C
:103040001CBD30B484680023A44630BC1A460A2153
:10305000604730B484680023A44630BC1A4610216F
:10306000604730B484680023A4460A4630BC0B2174
:1030700060472DE9F04115460E460446069F00F0D4
:1030800009F86761A660C4E903532046BDE8F04132
:1030900000F012B8002140F8081B064A02604260A6
:1030A0008260C260C17681770161FF21017780F87B
:1030B000201070474D34000830B484680023A446C3
:1030C00030BC1A4609216047080001D00A2801D106
:1030D0004FF6FF70704730B404690023A44630BC3B
:1030E0001A461921604713B50122046901AB172163
:1030F000A0471CBD30B404690023A44630BC1A4666
:103100001821604770B5154C1546182920780BD04A
:1031100004DC142920D0172904D107E0192910D084
:10312000202919D0002070BD002008E00C4A194663
:1031300010442A466360FDF7F7F820782844207091
:103140000AE00346064A78210648FDF7CDFE054809
:10315000FDF7FFFD2028FAD1012070BD18000020E6
:1031600094050020B400002030B4C4680023A446B5
:1031700030BC1A461921604730B4C4680023A44605
:103180000A4630BC1621604730B4C4680023A44608
:103190000A4630BC1521604730B4C4681346A446C3
:1031A0000A4630BC17216047F8B50C464FEA0005C7
:1031B00014F8011B182924D00EDC152919D0162962
:1031C00017D0172923D120788DF800006A460121F5
:1031D0002846FFF7E1FF0AE0192912D0FE2916D18F
:1031E00022788DF800202921284600F031F9641C4E
:1031F000DEE722788DF80020EE6800232846B047ED
:10320000F5E70023EE681A462846B047D0E7F8BD38
:1032100030B4C4680023A44630BC1A461821604765
:103220002DE9F041DFF8B08014460646A1F1140202
:10323000002798F800001D46062A4AD2DFE802F06F
:103240002F03161B3E4310B13046FFF744FF3046B4
:10325000FFF750FF00213046FFF745FF214630467B
:10326000FFF741FF012088F8000029E021463046A1
:10327000FFF739FF24E050B13046FFF72CFF06E09E
:103280001821304600F0EAF8183CE4B21835182C42
:103290002A46F5D82146304600F0E0F80EE096F8D0
:1032A0002400FF2802D1782086F8240037692B46B5
:1032B00022463046BC46BDE8F041604788F80070C1
:1032C0000120BDE8F0810028F8D03046FFF703FF69
:1032D000F4E70020F5E700001000002070B500239F
:1032E000456904461A462821A8470023E5681A467E
:1032F00014212046A84701224B21204600F0A8F8BF
:10330000206829210279204600F0A2F800224B21F2
:10331000204600F09DF8206829210279204600F01F
:1033200097F801224B21204600F092F820682921CD
:1033300042792046BDE8704000F08AB80160897C7F
:1033400080F822107047000070B50C46054600F06A
:1033500019F888B9092C0BD00A2C01D0002070BDB7
:103360002846FFF7BBFF05492846FFF71DFF03E08E
:1033700003492846FFF7E2FF012070BDBE3C00086C
:10338000C03D00082DE9F0411E46144605460B29B4
:1033900008D00D290ED00E291ED00F2927D00020CD
:1033A000BDE8F0811AB12849FFF7FEFE4AE0264940
:1033B000491FF9E74AB124490C31FFF7F5FE2868A7
:1033C00090F8130085F822003CE01F49491DFFF7E3
:1033D000EBFE2868807CF5E7FFF71AFF812128467D
:1033E000FFF7D2FE21462846FFF7C6FE27E0FFF78B
:1033F0000FFF707995F8221001EBC000C7B2402191
:103400002846FFF7C1FE102040EA17112846FFF7B3
:10341000BBFE07F00F012846FFF7AEFEB07940F083
:10342000B0012846FFF7A8FE30793268C006010EC9
:103430002846FFF7B1FE641E14F0FF04F4D12846BD
:10344000FFF792FE0120ABE79D3C0008002070478B
:1034500030B444690023A44630BC60472DE9F041F4
:1034600015460E460446FFF745FE40212046FFF76D
:103470003AFE27692B46324617212046B847204698
:10348000BDE8F041FFF727BE002180F82610704705
:10349000010202030405060708090A0B0C0D0E0FB2
:1034A00010100000000000000000010203040607E5
:1034B00008090000000001020304BF000202030427
:1034C000030504060A00FE07FE07000142029207F8
:1034D000B320050062072107394367A80022079B34
:1034E00052275901230D3D42AF4C69A86AA83225E5
:1034F00000240B3D4237AF7AA7B42300250B3D4291
:103500002FAAEEAA251300260C3D422FA7987295EC
:1035100064540127051953672808BB423795750184
:103520002908BB42279755092A0A2D4627A76AA8CA
:1035300076002B0A2D4637A3386446112C079B3E94
:103540004F95002D060D4E67082E079B3E2FAD04AC
:103550002F0B3D421F6594BB514600300A3D423758
:10356000A7DA4E7504310C3D4237CB94514619C54C
:1035700021320C3D426FE58CA2CC190D01330C3D7C
:1035800042676894B3863A2D00340C3D423FCB54D9
:10359000A6A1334A00350B3D42E746C9CC48A705F2
:1035A000360B3D4257E68C92A9D302370C3D426759
:1035B000689433CA35CA00380B3D426F659D56D6B4
:1035C0006901390C3D426F65A95446394A003A0AEF
:1035D000BB3E2FAD0CD34A003B09BB3E2FAD0C5573
:1035E000093C0ABC423FB6514619053D081D4A67D1
:1035F0006838043E0BBC4227A38C328A6D003F0A18
:103600003D426FE536CA7404400B3D426F65B99286
:1036100095E102410B3D4237A75A8F917500420C4C
:103620003D4267C42AA659C5A100430C3D426F65BF
:103630008D32CA28A705440D3D4267C42AA6986268
:103640008A4301450C3D42E746198D945146434655
:103650000D3D42E746198D9451461901470C3D42F4
:103660006F658D328A3B2D0048093D4227DB63643C
:103670003B4908BB4267C5AE014A0C3D427767949F
:1036800051466594004B0B3D4227CB54EA14AB1CCA
:103690004C0E3D4227A38C32CA28A38C86004D0ACB
:1036A0003D4227EBB592B6034E0A3D4227EBA99265
:1036B000DC3A4F093D426F65EFB400500D3D426763
:1036C000A4AC87CA28A38C00510A453E6F65AF6A37
:1036D000C300520B3D4267A4AC872AAB1C530B3D81
:1036E000426F650D37D46901540E3D4267C88C3274
:1036F000CA28A38C220055083D4227FB4E0B560BCF
:103700003D4227DBA94C31E508570A3D4227BB92D1
:103710004A7700580A3D4227EB5457B50E590C3DE5
:103720004227EB5467945146115A0A3D4267689408
:10373000BBD1105B08BB4267C4CE015C0D3D422784
:10374000A30C33CC30C38C025D08BB4267768E007D
:103750005E071D5237A73A5F060D3E6708600612E6
:103760005B2706610A2D426FC334741A01620C3D57
:103770004227A38C92A9A75200630A2D426F658D40
:10378000725A00640B3D421F6594CC2D950A650A60
:103790002D426FE531325C00660C3D42575679C4CC
:1037A0008C32CA00670C3D3A6F689D46463A2D0040
:1037B000680B3D4227A38C92A9ED006908BB422FFC
:1037C00023D91A6A0BCC3A3F635D4B9914006B0CFA
:1037D0003D4227A38CB24CB3CA016C07BB4247F6EB
:1037E0001A6D0A2D4247B5545249076E082D4227DB
:1037F00099DA0E6F092D426F653B2D00700C3D3A32
:1038000027997A2A95514600710B3D3ACFDC52A98F
:103810008C320A720B2D4227991A65941100730A93
:103820002D426F65B8E15000740D3D422FA33C62FC
:103830004619C5A80075082D42273B950A760A2D22
:103840004227EB54A61C0177092D42275B497501DD
:1038500078092D4227A7BAAA03790B3D3A279B4A3C
:1038600065A4D3027A082D4267E8F6107B0BBC42B0
:10387000576594348A19097C063943E7087D0CBCE6
:103880004247A39891CA2849007E091D522FAA24B5
:103890001300A005006207A1073943270D01A20C00
:1038A0003D3E370F15534C79C408A30B3D42575684
:1038B0007967149502A40A2D4227A799E2CA01A5A7
:1038C0000D453E27EB54C72133CA2802A6063943CB
:1038D000670DA70B453E6F65343B374A0BA8068B37
:1038E0005E2705A90C3D426F6595A64A3A2D00AAB0
:1038F0000AB4466F44A56A3402AB0B2E42B78A293C
:10390000E6986300AC07944A67E400AD068C4E6706
:1039100004AE0B3D426FE591E6D46901AF060D5E42
:103920006708B0069B52AF0BB10B354237A3386422
:10393000467108B208AC4E4FC5E608B30AAC4E67F4
:10394000A3A4D14800B406125B4F01B50A353E2747
:10395000DB53A98C00B60E3D426F8C34525231C5F8
:10396000145300B705094F27B806123B4F01B9079A
:10397000AB4E2FC96ABA0AB4464F4599341C01BBF5
:103980000C2E4227E698638A294600BC104E3E2F33
:10399000230D33CC6866A4531C1906BD104E3E2F70
:1039A000230D33CC686554C38C321ABE0E4D3E478E
:1039B000C39C619459A634320ABF0A3D4237D319D9
:1039C000E5D602C00C45422FC3BCB21E23EB00C19A
:1039D0000B4542BF5E598F917500C20C454237A717
:1039E000B8B21E23EB00C30C45422F2AB9B21E23E6
:1039F000EB00C40B4542AFA656D663641DC50C450B
:103A00004237A7B8B21E23EB00C60B3E4277A4B2E2
:103A100039466C0EC70D4D3A6F658D32CA28A75DC9
:103A200003C80E45422F8F8D321A29A38C8600C9F8
:103A30000E45423F8D8D321A29A38C8600CA0E4551
:103A400042378E8D321A29A38C8600CB0E4542AFA9
:103A50001A1B65345246190D01CC09C34227A7151C
:103A60005B03CD09C34237A5155B03CE09C342AF43
:103A70001A29B606CF09C34227E5155B03D00D3DD1
:103A80004267C42A8E54A6381400D10B45423775BC
:103A90004F95E4D601D20B45422FC3BCB23B2D005B
:103AA000D30A4542BF5ED99D1600D40B454237A7C5
:103AB000B8B23B2D00D50A454237355776A705D613
:103AC0000A4542AFA65676A705D7092D4227A7BAC1
:103AD000AA03D80B3D426FC52BCD991600D90A45D4
:103AE000422FC3DA3B2D00DA094542BFCCDE690123
:103AF000DB0B454237A78CB33B2D00DC0A4542AFB8
:103B0000C6D93B2D00DD0C4542BFCC3AD519651412
:103B100001DE0E3D4227A391F2501965941100DF9A
:103B20000B3D426F6599CA2A2B05E00C45422FC315
:103B30004C6E98864E23E10B4542BF26374C43A777
:103B400011E20C454237A74C6D98864E23E30C4595
:103B50004237B5A90DD3D06904E40B3D42AFA63678
:103B60004C43A711E50C454237A79C374C43A7119E
:103B7000E60B2E426F64548D998700E70B3D3A6F38
:103B8000658D72DA3500E80C45422FC34CAE3C46D9
:103B9000860BE90B4542BF26571E23C305EA0C4599
:103BA0004237A74CAD3C46860BEB0B3D42AFA656C9
:103BB0001E23C305EC09C3422767245B03ED08C33A
:103BC00042AF86B235EE08C342AF2D5B03EF08BBB0
:103BD000422765D91AF00B3D424743B9B29D160002
:103BE000F10A454237B57132B51DF20B45422FC37C
:103BF0004CAE6CA705F30A4542BF2657B6D302F474
:103C00000B454237A74CAD6CA705F50B454237B5C0
:103C1000A995EDB400F60A3D42AFA656B6D302F719
:103C2000092D463753435311F80A2D426FC895E6C4
:103C30005000F90B45422FC34C65A75201FA0A45C3
:103C400042BFA6B253A900FB0B454237A78CB35322
:103C5000A900FC0A3D42AFC6D9A95400FD0C4D3A5B
:103C6000BFCCA65219E9B400FE0D453A27A391B284
:103C70003D54461901FF0D4D3AAFC6D9542A239D34
:103C8000160000000004FFFF00000000FF2F0008E6
:103C900003300008232B00081815AF19FF1815AEC4
:103CA00019FF1815A115C819FF1815A015C019FF7F
:103CB0001815A115C019FF1815A015C819FF18155A
:103CC000AE15D5168015A8163F15D316001540154C
:103CD0008D16141520160015A115C815DA16121523
:103CE0008116CF15D916F115DB1640152E15A41522
:103CF000A619FF1815AE15D5168015A8163F15D3B1
:103D000016001540158D16141520160015A115C89E
:103D100015DA1612158116EF15D916A115DB160046
:103D2000152E15A415A619FF1815AE15D516801554
:103D3000A8163F15D316001540158D16141520161C
:103D40000015A115C815DA1602158116CF15D9165A
:103D5000F115DB1640152E15A415A619FF1815AE82
:103D600015A415D5165015A8163F15D316001540E5
:103D700015AD168B15D9162215DB163515321581A2
:103D800016FF15A615DA161219FF1815AE15D51659
:103D90008015A8163F15D316001540158D1614155D
:103DA00020160015A115C015DA1612158116CF15AB
:103DB000D916F115DB1640152E15A415A619FF000E
:103DC0000001140A6464323200127A00000428965A
:103DD00010080000800040000001140A64643232C0
:103DE00000093D00000428961008020280004000EF
:103DF000103E0008000000202000000028010008FC
:103E0000303E000820000020580C0000440100084B
:103E100001000000100000000000000000127A0005
:103E20000000000000000000000000000000000092
:04000005080000ED02
:00000001FF
